:0400000062EF00F0BB
:100008006D82FACF01F0FBCF02F0E9CF03F0EACF1F
:1000180004F0E1CF05F0E2CF06F0D9CF07F0DACF50
:1000280008F0F3CF09F0F4CF0AF0F6CF0BF0F7CFD2
:100038000CF0F8CF0DF0F5CF0EF06DC00FF06EC0DC
:1000480010F06FC011F070C012F0F2BAF2A405D02F
:10005800FA0ED65E000ED75AF2949EAA09D09E9A3E
:10006800310EAE18D8A404D0000E626E000E616E78
:1000780012C070F011C06FF010C06EF00FC06DF0BC
:100088000EC0F5FF0DC0F8FF0CC0F7FF0BC0F6FF60
:100098000AC0F4FF09C0F3FF08C0DAFF07C0D9FFA0
:1000A80006C0E2FF05C0E1FF04C0EAFF03C0E9FFA4
:1000B80002C0FBFF01C0FAFF6D921100EBEF07F0E1
:10020000005072657373203120746F2073746172B3
:1002100074206F766572210D0A0046696E697368F5
:05022000210D0A0000A1
:10022600D388D38AD38CD380D382948C948E8B8CB0
:100236008B8E93909290899021EC09F0800E136E2C
:10024600250E146E000E156E000E166E0EEC09F0DD
:1002560001EC09F0E1EC08F061506210D8A40CD072
:1002660085C019F086C01AF0BBEC07F0F2EC08F076
:10027600000E626E010E616E61046210D8A471D028
:10028600000EE6EC06F013C069F014C06AF0675081
:10029600695C6A50800A0101076F6850800A075935
:1002A600D8B014D00001F44BF52B000E686E000E8A
:1002B600676E010EE6EC06F013500001DC271450C1
:1002C600DD23000EDE23000EDF230FD069506B5CAA
:1002D6006C50800A0101076F6A50800A0759D8B02E
:1002E60004D069C067F06AC068F069C06BF06AC084
:1002F6006CF00001F5BF2CD0F55104E1080EF45D59
:10030600D8A026D0000E626E020E616EDCC007F128
:10031600DDC008F1DEC009F1DFC00AF1040E06D027
:100326000101D8900A33093308330733E82EF8D78A
:1003360007C11BF008C11CF009C11DF00AC11EF05F
:1003460077EC08F01BC05AF01CC05BF01DC05CF0D7
:10035600680E0101076FE40EE82EFED7072FFCD7C3
:1003660000F0020E61186210D8A440D0800E1E6EF6
:10037600A70E1F6EC30E206E5AC01BF05BC01CF08A
:100386005CC01DF052EC04F01BC027F01CC028F026
:100396001DC029F0BC0E2A6E840E2B6E3E0E2C6EEE
:1003A600A2EC05F027C0EEF028C0EFF029C0F0F06F
:1003B60089C019F08AC01AF0BBEC07F0EEC000F154
:1003C600EFC001F1F0C002F157EC03F01AEC08F0AF
:1003D600F2EC08F0030E6C6EE80E6B6E000E606EAB
:1003E600000E5F6E000E626E030E616E030E6118E4
:1003F6006210D8B45DD0D2D0000EE6EC06F013C081
:1004060069F014C06AF06CBE04D0020E6C5CD8B001
:1004160014D06ABE12D06904020E6A58D8A00DD054
:100426005F506010D8A409D0000E606E010E5F6E9A
:10043600000ED76E000ED66ED58E6CBE04D0020EA0
:100446006C5CD8B031D06ABE2FD06904020E6A58EF
:10045600D8A02AD05F046010D8A426D0D59ED75045
:100466000101086F076BD6500725656E000E08213F
:10047600666E65500001E425E46F6650E521E56F80
:10048600000EE621E66F000EE721E76F000ED76E3D
:10049600000ED66E5D4A5E2A5EBE05D05E5004E151
:1004A600080E5D5CD8A0D58E69C06BF06AC06CF092
:1004B6005EBEA2D75E5004E1080E5D5CD8A09CD754
:1004C600000E396E000E3A6E410E3B6E380E2A6EE5
:1004D600060E2B6E380E2C6EE4C01BF0E5C01CF029
:1004E600E6C01DF0E7C01EF077EC08F01BC027F051
:1004F6001CC028F01DC029F0A2EC05F027C036F07C
:1005060028C037F029C038F01CEC06F036C00BF1D5
:1005160037C00CF138C00DF1000E2A6E700E2B6E2E
:10052600420E2C6E0BC127F00CC128F00DC129F02C
:10053600A2EC05F027C045F028C046F029C047F0D8
:1005460028EC05F045C0E0F046C0E1F047C0E2F017
:1005560048C0E3F087C019F088C01AF0BBEC07F07A
:10056600E0C01BF0E1C01CF0E2C01DF0E3C01EF0CD
:1005760077EC08F01BC0EBF01CC0ECF01DC0EDF0F2
:10058600EBC000F1ECC001F1EDC002F157EC03F055
:10059600F2EC08F0000E626E040E616E040E611835
:1005A6006210D8A450D01B0E0101086F4F0E076FC2
:1005B600FD0EE82EFED7072FFCD7082FFAD7800EA0
:1005C6001E6EA70E1F6EC30E206E5AC01BF05BC0B8
:1005D6001CF05CC01DF052EC04F01BC027F01CC0E0
:1005E60028F01DC029F0C70E2A6E2B0E2B6E3E0E6C
:1005F6002C6EA2EC05F027C0E8F028C0E9F029C06F
:10060600EAF08BC019F08CC01AF0BBEC07F0E8C01A
:1006160000F1E9C001F1EAC002F157EC03F01AEC6F
:1006260008F0F2EC08F01A0E196E020E1A6EBBEC08
:1006360007F0010E196E020E1A6EBBEC07F0000EE3
:10064600626E050E616E050E61186210D8A404D69E
:10065600000E0001F56F000EF46F000E686E000EBE
:10066600676E000EDC6F000EDD6F000EDE6F000E93
:10067600DF6F000E5A6E000E5B6E000E5C6E000E93
:10068600606E000E5F6E000E5E6E000E5D6E000EFA
:10069600E46F000EE56F000EE66F000EE76F000ECA
:1006A600626E060E616ED8D5000E596E000E586E3B
:1006B600000E136EC80E146E420E156E00C116F0B3
:1006C60001C117F002C118F030EC07F0D8B07BD0AA
:1006D60000C113F001C114F002C115F0000E166E30
:1006E600480E176E430E186E30EC07F0D8B06BD07C
:1006F60000C145F001C146F002C147F028EC05F003
:1007060045C054F046C055F0000E576E640E566E46
:1007160078EC07F054C058F055C059F01BEC09F0BE
:100726000009D8A4FBD75850300FAD6E00C145F074
:1007360001C146F002C147F028EC05F09C0E4524A5
:10074600546EFF0E4620556E000E576E0A0E566EFC
:1007560078EC07F054C058F055C059F01BEC09F07E
:100766000009D8A4FBD75850300FAD6E00C145F034
:1007760001C146F002C147F028EC05F045C003F17F
:1007860046C004F147C005F148C006F158C013F051
:1007960059C014F0000E166E0A0E156ECEEC08F057
:1007A600131E141E134A142A135001010327145052
:1007B60004239C0E0325586EFF0E0421596E5850D3
:1007C600300FAD6E120000C113F001C114F002C16A
:1007D60015F0000E166EC80E176E420E186E30EC2F
:1007E60007F0D8B01200000E136E000E146E000E45
:1007F600156E00C116F001C117F002C118F030ECF9
:1008060007F0D8B0120000C145F001C146F002C1A0
:1008160047F028EC05F045C054F046C055F0000EF0
:10082600576E0A0E566E78EC07F054C058F055C055
:1008360059F01BEC09F00009D8A4FBD75850300F2B
:10084600AD6E00C145F001C146F002C147F028EC8B
:1008560005F045C003F146C004F147C005F148C0A4
:1008660006F158C013F059C014F0000E166E0A0EA9
:10087600156ECEEC08F0131E141E134A142A1350DC
:1008860001010325586E14500421596E1BEC09F022
:100896000009D8A4FBD75850300FAD6E12001DC00A
:1008A60021F0226A236A1C34213601E3228021507A
:1008B600266E20C021F0226A236A1F34213601E306
:1008C60022802150256E2650D8B40BD02550265CA8
:1008D600D8B00ED0265000082524216E180E2164AB
:1008E60007D01EC01BF01FC01CF020C01DF0120058
:1008F6002550D8B40BD02650255CD8B00ED0255044
:1009060000082624216E180E216407D01BC01BF098
:100916001CC01CF01DC01DF01200060E246E1DBE6C
:10092600248E20BE248C1C8EFF0E1B16FF0E1C165A
:10093600000E1D161F8EFF0E1E16FF0E1F16000E32
:1009460020162550265CD8B01BD0D8901E361F36F0
:100956002036250626502518D8B40DD0240624C0E6
:1009660021F0070E2116D8B406D0EFD7D8901D3245
:100976001C321B32262A25502618D8B41FD0F6D78B
:100986002650255CD8B01AD0D8901B361C361D369A
:10099600260626502518D8B40DD0240624C021F0EA
:1009A600070E2116D8B406D0EFD7D89020321F32C2
:1009B6001E32252A25502618D8A4F7D724AE0CD0E7
:1009C600FF0E1B1AFF0E1C1AFF0E1D1A010E1B2608
:1009D600000E1C22000E1D2224AC0CD0FF0E1E1A87
:1009E600FF0E1F1AFF0E201A010E1E26000E1F22D2
:1009F600000E2022000E246E1B501E261C501F22A5
:100A06001D50202220AE0ED0FF0E1E1AFF0E1F1AFA
:100A1600FF0E201A010E1E26000E1F22000E202297
:100A2600010E246E1EC013F01FC014F020C015F076
:100A360026C016F024C017F08FEC06F013C01BF08A
:100A460014C01CF015C01DF0120047C049F04A6AD8
:100A56004B6A4634493601E34A804950536E535037
:100A6600D8A409D0000E456E000E466E000E476EE5
:100A7600000E486E1200170E496E45C04AF046C079
:100A86004BF047C04CF049284D6E04D0D8904C32FC
:100A96004B324A324D2EFAD74A504E6E468EFF0ED4
:100AA6004516FF0E4616000E471645504F6E465029
:100AB600506E4750516E526A8E0E535E53AE16D02C
:100AC6005350800A8F0FD8B009D0000E456E000E25
:100AD600466E000E476E000E486E1200D8905232D7
:100AE600513250324F32533EF9D715D0170E536458
:100AF6000FD0000E456E000E466E000E476E000EBD
:100B0600486E1200D8904F3650365136523653063C
:100B16005350D8A4F7D74E50D8B408D0521E511E01
:100B2600501E4F6C000E5022512252224FC045F0EB
:100B360050C046F051C047F052C048F0120029C0DC
:100B46002DF02E6A2F6A28342D3601E32E802D5083
:100B5600306E3050D8A407D0000E276E000E286ED7
:100B6600000E296E12002CC02DF02E6A2F6A2B342F
:100B76002D3601E32E802D50356E3550D8A407D082
:100B8600000E276E000E286E000E296E12003550DC
:100B96007B0F302629C035F02C50351A800E3516BD
:100BA600288E2B8EFF0E2A16FF0E2B16000E2C16E5
:100BB600000E316E000E326E000E336E070E346E6E
:100BC60027A006D02A5031262B5032222C50332211
:100BD600D890293228322732D8902A362B362C360E
:100BE600342EEED7090E346E27A006D02A503126B1
:100BF6002B5032222C503322D890293228322732D9
:100C0600D890333232323132342EEED731C013F02F
:100C160032C014F033C015F030C016F035C017F0EE
:100C26008FEC06F013C027F014C028F015C029F089
:100C3600120038C03CF03D6A3E6A37343C3601E368
:100C46003D803C50436E4350D8A407D0000E366E0C
:100C5600000E376E000E386E12003BC03CF03D6A47
:100C66003E6A3A343C3601E33D803C50446E445083
:100C7600D8A407D0000E366E000E376E000E386E02
:100C86001200000E406E000E416E000E426E445081
:100C9600890F435E38C044F03B50441A800E441618
:100CA600378EFF0E3616FF0E3716000E38163A8EA2
:100CB600FF0E3916FF0E3A16000E3B16180E3F6E43
:100CC600D8904036413642363950365C3A5037581D
:100CD6003B503858D8A007D03950365E3A50375A6C
:100CE6003B50385A4080D8903636373638363F2E05
:100CF600E7D740C013F041C014F042C015F043C01E
:100D060016F044C017F08FEC06F013C036F014C08E
:100D160037F015C038F012001650D8B405D013506D
:100D260014101510D8A40CD0000E136E000E146EFD
:100D3600000E156E1200162AD89015321432133290
:100D4600000E1314186E000E1414196EFE0E1514F0
:100D56001A6E185019101A10D8B40CD0ECD7162ADF
:100D6600010E1326000E1422000E1522D8901532FD
:100D760014321332000E1314186E000E1414196E6A
:100D8600FF0E15141A6E185019101A10D8B406D082
:100D9600E6D71606D89013361436153614BE03D089
:100DA600020E1660F6D716A0149ED890163216506C
:100DB60015121750D8A4158E13C013F014C014F0D2
:100DC60015C015F01200166E16C015F0D890153223
:100DD600D8901532D8901532010E1516153A1546CB
:100DE600C2501518DF0B1518C26E16C015F0D89034
:100DF6001532D8901532010E1516153AC25015182F
:100E0600EF0B1518C26E16C015F0D8901532010EEC
:100E16001516154615461546C2501518F70B151822
:100E2600C26E16C015F0010E151615461546C250AF
:100E36001518FB0B1518C26EC280C282410E156EC4
:100E4600EE0EE82EFED7152EFCD700D0C2B2FED786
:100E5600C3CF13F0C4CF14F0120015AE16D013C0D2
:100E660019F014C01AF015C01BF0191E1A1E1B1E0D
:100E7600192A000E1A221B22000E1924136E000EC8
:100E86001A20146E800E1B20156E18AE16D016C0D2
:100E960019F017C01AF018C01BF0191E1A1E1B1ED7
:100EA600192A000E1A221B22000E1924166E000E95
:100EB6001A20176E800E1B20186E000E131A000ED5
:100EC600141A800E151A000E161A000E171A800E26
:100ED600181A1650135C1750145818501558D8B0D5
:100EE60002D0D8901200D8801200000E0001FB6FCD
:100EF60057AE06D0566C571ED8B0572A010EFB6F58
:100F060055AE06D0546C551ED8B0552A010EFB1BA3
:100F1600000EFD6F000EFC6F56505710D8B41CD053
:100F2600010EFA6F04D0D89056365736FA2B57AEC4
:100F3600FAD7D890FC37FD375650545C5750555861
:100F4600D8A005D05650545E5750555AFC81D890BB
:100F560057325632FA2FEDD7FB51D8B404D0FC6D78
:100F6600FD1FD8B0FD2BFCC054F0FDC055F012009B
:100F7600000E1E6E000E1D6E1ED01D5019241B6E17
:100F86001E501A201C6E1BC0F6FF1CC0F7FFF86A25
:100F9600010EF76403D00800F55005D0F6CFE9FF3F
:100FA600F7CFEAFFEF50AD6E1BEC09F00009D8A4AD
:100FB600FBD71D4A1E2A19C013F01AC014F0A5EC5F
:100FC60008F013501D5C14501E58D8B01200D5D727
:100FD600920EF66E100EF76E000EF86E00EE80F0B2
:100FE60010EE5CF00900F5CFEEFFE550E150FAE1B6
:100FF600460EF66E120EF76E000EF86E0900F5CF6D
:101006006BF00900F5CF6CF000EEDCF01E0EEE6A18
:10101600E806FDE100EE5AF0110EEE6AE806FDE183
:101026006D906D92000EF86E000113EF01F01BEC4F
:1010360009F00009D8A4FBD720EE80F010EE19F0D5
:10104600040EDBCFE3FFE806FCE2000E646E000E42
:10105600636E0FD0190E6324D96E000E6420DA6E0B
:10106600DF50AD6E1BEC09F00009D8A4FBD7634A2C
:10107600642A190E136E000E146EA5EC08F01350B8
:10108600635C14506458D8B01200E4D76D6D48679D
:1010960000CF008D00BB00A6004865617274204237
:1010A6006561747320706572204D696E7574653A5A
:1010B600200044696173746F6C69632050726573B4
:1010C600737572653A2000537973746F6C69632087
:1010D60050726573737572653A20004D656173755C
:1010E60072696E672E2E2E008E0E236E06D0D89055
:1010F6001E321D321C321B32232A000E1B141F6E99
:10110600000E1C14206E000E1D14216EFF0E1E1400
:10111600226E1F50201021102210D8A4E8D71BC021
:1011260013F01CC014F01DC015F023C016F0000EFD
:10113600176E8FEC06F013C01BF014C01CF015C020
:101146001DF0120013C017F014C018F002D0174A91
:10115600182A17C0F6FF18C0F7FFF86A010EF764E1
:1011660003D00800F55005D0F6CFE9FFF7CFEAFF28
:10117600EF500009D8A4EBD713C015F014C016F031
:10118600151E161E154A162A17501524136E1850CA
:101196001620146E120013501502F3CF17F0F4CF79
:1011A60018F013501602F350182614501502F35077
:1011B600182617C013F018C014F01200000ED56ED2
:1011C600D586000ED76E000ED66EF28AF294D08EB9
:1011D600D59CD59AD596D594D582D59012001BEC80
:1011E60009F00009D8A4FBD70A0EAD6E1BEC09F076
:1011F6000009D8A4FBD70D0EAD6E12009280928224
:1012060092849286C084C082C080000EC26E0A0E8E
:10121600C16EC08E1200B8960C0EAF6EAC98948E4E
:10122600948CAB88AC8AAB8E9D8AF28EF28C1200BF
:10123600ACB202D0010E1200000E1200AB9E1200DC
:02124600E803BB
:020000040020DA
:08000000FFFFFFFFFFFFFFFF00
:020000040030CA
:0E000000FF091900FF8381FF03C003E00340E6
:00000001FF
